:020000040800F2
:10000000007F0010B58B0008918B0008938B0008CF
:10001000958B0008978B0008998B00080000000062
:100020000000000000000000000000009B8B0008A2
:100030009D8B0008000000009F8B0008A18B00082A
:10004000EB8B0008EF8B0008F38B0008F78B0008A0
:10005000FB8B0008FF8B0008038C0008078C00084E
:100060000B8C00080F8C0008138C0008178C0008FC
:100070001B8C00081F8C0008238C0008278C0008AC
:100080002B8C00082F8C0008338C0008378C00085C
:100090003B8C00083F8C0008438C0008478C00080C
:1000A0004B8C00084F8C0008538C0008578C0008BC
:1000B0005B8C00085F8C0008638C0008678C00086C
:1000C0006B8C00086F8C0008738C0008778C00081C
:1000D0007B8C00087F8C0008C58B0008838C00088F
:1000E000878C00088B8C00088F8C0008938C00088C
:1000F000978C00089B8C00089F8C0008A38C00083C
:10010000A78C0008AB8C0008AF8C0008B38C0008EB
:10011000B78C0008BB8C0008BF8C0008C38C00089B
:10012000C78C0008CB8C0008CF8C0008D38C00084B
:10013000D78C0008DB8C0008DF8C0008E38C0008FB
:10014000E78C0008EB8C0008EF8C0008F38C0008AB
:10015000F78C0008FB8C0008FF8C0008038D00085A
:10016000078D00080B8D00080F8D0008138D000807
:10017000178D00081B8D0008000000000000000023
:100180001F8D0008238D00082DE9F84FDFF8304C53
:10019000DFF8307C00202DED028BE066F8616067AF
:1001A00096B001F081F901F095F901F0ADF901F097
:1001B000C5F901210B911020059000210C916020C0
:1001C0000D9001210F91109102200E902821149082
:1001D0001191042007211390129105A801F0BAF99A
:1001E00000B1FEE70F200090032100200191029052
:1001F000039004900421684601F0CEFB00B1FEE7B5
:1002000001F048FD01F0BAFDDFF8BC8B012207F1D7
:100210000C01404601F0C2FE002002F043FAA06F3C
:100220000068002812BF10F1010F002000F0CBFA87
:10023000E06F0068002812BF10F1010F002000F0ED
:1002400057FBE06FA66F01680FF6CC390091DFED28
:10025000D60A96ED000A00F0B7F904F1800A00F022
:10026000ADF9504602F07AFB41F2883600F0A0F971
:10027000DFF8580B016841F4005101600068DFF8B5
:10028000501B00F400500090009861600020E06076
:1002900060614FF4003101202062A1600020A06263
:1002A000E062606301202063002020610120606221
:1002B0000020A063A061201D02F070FB68B911202E
:1002C00001210190029106200021039004910591E3
:1002D0000691201D01A902F06DFD0021201D02F0F4
:1002E0006FFF201D02F04CFCDFF8E81ADFF8E80A87
:1002F00008604FF4E130486000208860C860086101
:100300000C20486100208861C8610862486202F0E0
:1003100002FA0FF6883002F097FF02F0A9FF0028DA
:100320005FD10FF6A83002F08FFF384602F0C6FF0B
:1003300068B97879BB787A78397802903879019001
:10034000F87800900FF69C3002F07EFF03E00FF685
:10035000C83002F079FF03220FF6F4310FF6DC30DB
:1003600002F09BFF002839D10FF6F43002F06CFF49
:1003700007F1080002F0A8FF68BBF87ABB7A7A7A26
:10038000397A00900FF2242B0FF6F43002F05CFF64
:100390003D7A5946284602F0E9FF797A02F0E6FFF5
:1003A000594602F0E3FFB97A02F0E0FF594602F045
:1003B000DDFFF97A02F0DAFF3862284602F044FFE6
:1003C0000FF6EC3002F040FF0FF6FC3002F03CFF7D
:1003D0000020E07009E00FF60C4004E00FF6344016
:1003E00001E00FF6584002F02FFFA06F00680028D0
:1003F00012BF10F1010F002000F0E5F9E06F006876
:10040000002812BF10F1010F002000F071FAE06F18
:100410000FF6984501680091DFED630AA16F91ED39
:10042000000A00F0D1F800F0C9F8504602F096FA40
:1004300000F0BEF80020A0700FF63049A0787328B5
:100440001CBFA178532903D1A06F006800F0BBF94D
:10045000A07867281CBFA178472903D1E06F006806
:1004600000F046FAA07874281CBFA178542903D163
:100470000020A07000F036FBA0786F281CBFA17888
:100480004F2905D10020A07002F02FF900F06EFC7A
:10049000A07870281CBFA178502905D10020A07039
:1004A00002F02DF900F073FCA06F90ED000AE06FF0
:1004B000B8EEC00ADFED3C0A00F072F984ED1B0AC9
:1004C00002F086FF84ED1D0A00F066F941EC100B86
:1004D00003F052F851EC100B03F080F840B294EDA9
:1004E0001B0A02F0BBFFB0EE408A606F84ED1C8AED
:1004F00003F092F8CDE9000118EE100A03F08CF831
:1005000000F05CF8504602F029FA00F051F84FF480
:10051000FA7003F0A5F800F05FF8002002F0E5F8AB
:10052000002002F0ECF8002002F0DFF8A078732839
:100530001CBFA178532903D1A06F006800F043F9D4
:10054000A07867281CBFA178472903D1E06F006815
:1005500000F0CEF9A07874281CBFA178542903D1EB
:100560000020A07000F0BEFAA0786F281CBFA17810
:100570004F2905D10020A07002F0B7F800F0F6FB7B
:10058000A07870281CBFA178502905D10020A07048
:1005900002F0B5F800F0FBFB3946284602F054FEA5
:1005A000304603F05DF849E700007A442E00000071
:1005B00082B233465146404601F09BBC02460B4690
:1005C0004946504603F058B8B8EEC00AC0EE200ABB
:1005D00010EE900A03F020B8F8B5DFF8E457DFF822
:1005E000FC472DED028BE87886B010B1012813D0BE
:1005F000CEE060605023BBA2002102F079FE61686A
:1006000011F1010F05D00FF6C82002F01DFE0120E8
:10061000BDE00FF6D420A6E0676842F2107600969F
:1006200023464FF4966204F12801F8B202F07FFEEF
:1006300020880028DCD0ACA104F1280003F03CF8AD
:10064000002800F094804FF47A71281D02F0FFFA20
:1006500010B9281D02F0A0FB00F033FF84ED020A60
:1006600000F048FF84ED030A00F05EFF84ED040A09
:10067000DFED9E0AA86F90ED000AE86FB8EEC00AA1
:1006800000F08EF885ED1B0A02F0A2FE85ED1D0A32
:1006900000F082F841EC100B02F06EFF51EC100BF1
:1006A00002F09CFF40B295ED1B0A02F0D7FEB0EEBF
:1006B000408A686F85ED1C8A02F0AEFFCDE900012B
:1006C00005F1800718EE100A02F0A6FF02460B465D
:1006D0000FF69811384602F0CFFF384602F03EF987
:1006E00082B241F288333946DFF8DC0601F001FCC2
:1006F00095ED1D0ADFEDC80AFFF768FFCDE904019B
:10070000206902F089FFCDE90201E06802F084FF70
:10071000CDE90001A06802F07FFF02460B460FF60C
:10072000F81104F1140002F0A7FF04F11402BBA1B8
:1007300004F1140002F0A0FF04F1140002F00EF91D
:1007400082B2009601AB04F11401002002F0E9FD31
:1007500038B9BDF8046004F1140002F0FFF88642D5
:1007600016D00FF6C81002F06FFD03200FE00FF651
:10077000DC1104F1280002F09FFF48B1606802F02C
:10078000CBFD28B90FF6CC1002F05EFD0020E8701A
:1007900006B0BDEC028BF1BD10EE100A02F03CBFBA
:1007A000C0EE200A90ED000AB8EEC00A02F0EEBDDD
:1007B00001B54FF6FF7301226946DFF8180601F014
:1007C00098FB009802BD2DE9F04F85B00021002470
:1007D0000025009110B940F6FC04012500F050F905
:1007E0000FF6881100F043F900F054F900F055F9C4
:1007F00000F022F91CBFB978592917D0ADB102F029
:10080000ACFF00F060F922460023DFF8D415002089
:1008100002F06AFF02F0AAFF22460FF6642100F000
:1008200026F900F037F900F03AF957E10020B870E6
:1008300048460FF6781102F01FFF00F02BF900F088
:100840002EF905200024387000F002F900F0FAF8C3
:1008500000F0E6F800F0DAF800F00CF900F025F905
:1008600003F048F800F0FFF800F014F900F017F971
:1008700000F021F9E8D586A100F0F2F800F00AF9BD
:1008800000F00DF90FF64C11224600F0F0F800F0E0
:1008900001F900F004F900F0C9F81CBFB878592834
:1008A000C4D102F05AFF08B100F0D8F800F00BF9FB
:1008B00010B10FF65C1111E022460023DFF820157D
:1008C00002F012FF10B10FF6601107E002F04EFFC8
:1008D000002814BF0FF678110FF68C1100F0C0F845
:1008E0009FE70000000000004745540000007A44E4
:1008F0002DE9F04F85B0002100240025009110B9AA
:10090000DFF8E044012500F0BBF80FF6901100F08D
:10091000AEF800F0BFF800F0C0F800F08DF81CBF92
:10092000B978592917D0ADB102F017FF00F0CBF814
:1009300022460023DFF8B014002002F0D5FE02F0BA
:1009400015FF22460FF6381100F091F800F0A2F8DA
:1009500000F0A5F8C2E00020B87048460FF6681114
:1009600002F08AFE00F096F800F099F805200024C5
:10097000387000F06DF800F065F800F051F800F004
:1009800045F800F077F800F090F802F0B3FF00F0BF
:100990006AF800F07FF800F082F800F08CF8E8D5F3
:1009A0003BA100F05DF800F075F800F078F80FF664
:1009B0003811224600F05BF800F06CF800F06FF898
:1009C00000F034F81CBFB8785928C4D102F0C5FE35
:1009D00008B100F043F800F076F810B10FF63001DE
:1009E00011E022460023DFF8001402F07DFE10B172
:1009F0000FF6340107E002F0B9FE002814BF0FF62D
:100A000050010FF6640100F02BF89FE741EC110B49
:100A10009FEDC60B02F085BF0000C84225730000A1
:100A2000064697F90000884602F084BFB87800288F
:100A3000FCD0B97879297047B8780028FCD0B8780C
:100A4000792870470446B8780D46303802F072BFF6
:100A5000B8780028FCD0204602F07EBF0FF29471D7
:100A6000484602F009BEBA780446BFA1303A48466B
:100A700002F002BE51EC100B3246434602F07ABF40
:100A8000CF4FDFF844B3B97007F1800902467047D1
:100A90000D0A0000484601F061BF41F2883A82B277
:100AA00053464946584601F024BA02460B462046B2
:100AB000294603F031B80020B8703878401E3870ED
:100AC00040B200287047002001904FF49F71012030
:100AD00003910490694601A803F0DAB805B0BDE8B7
:100AE000F08F00002DE9F84F2DED048BB44DDFF8A9
:100AF000D8B20FF6500A82B0002405F1800841F206
:100B0000883910E00FF638113B463246404602F075
:100B1000B3FD0124052600F019F900F00EF9072EA7
:100B200022D0310026D10020A87040460FF2D871A3
:100B300002F0A2FD00F00AF900F0FFF8A878002802
:100B4000FCD0A97879291CBFA878592802D10021A6
:100B5000A97011E00020A8700FF6301100F0F3F832
:100B600000F0F4F800F0E9F802B02046BDEC048B88
:100B7000BDE8F28F012E34D100F0DCF806B2A6F504
:100B8000E170C92828BF0124022003F02FF907B221
:100B9000A7F5FA70652828BF012402F019FCDFEDE3
:100BA000870AB4EE600AF1EE10FA06DAF2EE0E0AE7
:100BB000B4EE600AF1EE10FA0BD50124FFF7ECFD5C
:100BC000CDE900013B4632465146404602F054FD15
:100BD000A0E72000F2D10FF2507100F0B4F8022625
:100BE00099E7022E2FD100F0C1F80020A87003F081
:100BF000B3F90646A87850B900F09CF8512806DBF6
:100C000003F0AAF9801B47F230518842F2D3A8784A
:100C100018B100210224A9709EE703F09DF9861BFC
:100C200047F23050864209D30FF2507100F08BF832
:100C300000F08CF800F081F802248BE74FF47A7012
:100C400002F00EFD01E0032E2AD100F0A0F80FF211
:100C50005C7100F078F800F079F800F06EF803F0BD
:100C60007BF9064600F066F8642806DA03F074F9AA
:100C7000801B42F210718842F4D303F06DF9861B99
:100C800042F2107086420DD30FF2387100F05BF81B
:100C900000F05CF800F051F801240FF2D4715DE728
:100CA000042E3CD14FF4FA6002F0DAFC00F042F876
:100CB00006B2022003F09AF807B2384602F03AFE74
:100CC00041EC180B304602F035FE41EC190B53ECA9
:100CD000182B4648464902F04DFE02460B4651ECA1
:100CE000190B03F03FF90AD253EC182B4FF03330B5
:100CF000404902F03FFE53EC192B03F033F9BFF4E7
:100D000001AF0FF2FC6100F01EF800F01FF800F0D8
:100D100014F80FF20C7100F016F80726FBE6052E0A
:100D2000BBD0062E7FF4FBAE16E7000000000000EB
:100D300000002440032003F059B882B24B464146DC
:100D4000584601F0D6B8404602F096BC404601F045
:100D500005BE1B491B4B01224A701A7B8A7003F1A6
:100D60000C01012201F01AB92564000080B5174872
:100D700086B000F046F8012200980191002003217E
:100D800003900491029200F037F801220EE080B542
:100D90000E4886B000F035F80022009801910292CA
:100DA00003210491039200F027F8002202214FF062
:100DB000904003F0D3F907B000BD000001004842A5
:100DC0009C0000201C020020000000204C1002406B
:100DD00000000450300F0020003801404002002085
:100DE00000F00308F02B070000F803089A9999997E
:100DF0009999E93F3333D33F01A94FF0904003F075
:100E0000C9B8016841F0020101600221006800F0E8
:100E100002000090704700000D53544D6963726FDB
:100E2000656C656374726F6E6963732067617320AC
:100E300073656E736F722064656D6F2056312E304E
:100E40000D0A2053656E736F723A202020202020F7
:100E5000544753353134312028436172626F6E201C
:100E60006D6F6E6F78696465290D0A2053656E7326
:100E7000697469766974793A20252E3366206E414B
:100E80002F70706D0D0A204761696E3A2020202076
:100E90002020202025640D0A0D0A00002A2A2A2A73
:100EA0002A2A2057494649205765622053657276A1
:100EB00065722064656D6F6E7374726174696F6EB4
:100EC0002A2A2A2A2A2A200A0A00000045532D57D6
:100ED00049464920496E697469616C697A65642E76
:100EE0000A0000003E2065732D77696669206D6FEA
:100EF00064756C65204D4143204164647265737371
:100F0000203A2025583A25583A25583A25583A2566
:100F1000583A25580A0000003E204552524F5220B0
:100F20003A2043414E4E4F5420676574204D414353
:100F300020616464726573730A000000566F646117
:100F4000666F6E652D323036303335353300000034
:100F50007331323132303030303032323533380064
:100F60003E2065732D77696669206D6F64756C65C9
:100F700020636F6E6E6563746564200A0000000074
:100F80003E2065732D77696669206D6F64756C65A9
:100F900020676F7420495020416464726573732028
:100FA0003A2025642E25642E25642E25640A00002F
:100FB0003E537461727420485454502053657276C5
:100FC00065722E2E2E200A003E5761697420666FCE
:100FD0007220636F6E6E656374696F6E2E2E2E20A5
:100FE000200A00003E204552524F52203A2065739D
:100FF0002D77696669206D6F64756C652043414E7D
:101000004E4F5420676574204950206164647265B6
:1010100073730A003E204552524F52203A206573A6
:101020002D77696669206D6F64756C65204E4F542D
:1010300020636F6E6E65637465640A003E204552DE
:10104000524F52203A2057494649204D6F64756CE3
:10105000652063616E6E6F7420626520696E6974CD
:1010600069616C697A65642E0A00000020434F2094
:10107000636F6E74656E7420252E31662070706DFE
:10108000202874656D7020252E316620432920208C
:101090002020202020202020202020202020202050
:1010A000202020202020200D0000000020252E31AF
:1010B00066202020202020202020202020202020EA
:1010C00020202020202020202020200A00000000B6
:1010D0003E204854545020536572766572205374F4
:1010E0006172746564200A003E204552524F5220BE
:1010F0003A20436F6E6E656374696F6E2063616E34
:101100006E6F742062652065737461626C697368C8
:1011100065642E0A00000000252E32663B252E3223
:10112000663B252E32663B252E3266003E20455218
:10113000524F52203A2043616E6E6F742073656E79
:10114000642077656220706167650A00504F5354D0
:10115000000000003E20536572766572206469735A
:10116000636F6E6E65637465640A00005570646138
:1011700074652073656E7369746976697479206328
:10118000616C6962726174696F6E2073746F7265ED
:101190006420696E20666C6173683F20282564298D
:1011A0002028592F4E290D0A00000000506C65615F
:1011B00073652077726974652073656E73697469ED
:1011C0007669747920283620646967697473290DFB
:1011D0000A000000497320697420726967687420EE
:1011E00076616C756520282564293F2028592F4E8B
:1011F000290D0A004572726F7220746F20756E6C33
:101200006F636B20666C6173680D0A0D0A00000045
:101210004572726F722065726173696E6720666CC9
:101220006173680D0A0D0A0057726974696E672050
:10123000696E746F20666C617368207761732075C6
:101240006E73756363657366756C6C0D0A0D0A00C9
:101250004572726F7220746F206C6F636B20666CC6
:101260006173680D0A0D0A005375636365737366D5
:10127000756C6C792073746F7265640D0A0D0A00C9
:1012800044656661756C742076616C7565202825EF
:10129000642920757365640D0A0D0A005570646138
:1012A0007465206761696E2073746F72656420696C
:1012B0006E20666C6173683F2028256429202859B8
:1012C0002F4E290D0A000000506C65617365207770
:1012D00072697465206761696E20283620646967C9
:1012E000697473290D0A00004973206974207269BA
:1012F0006768742076616C75653F20282564292015
:1013000028592F4E290D0A000D0A0D0A52756E201C
:10131000746573742070726F6365647572653F20C5
:1013200028592F4E290D0A00537461746963206D8A
:101330006561737572656D656E743A204F4B200D53
:101340000A000000537461746963206D65617375F0
:1013500072656D656E743A204641494C200D0A470E
:1013600041533A2564205245463A25642054454D60
:10137000503A252E31660D0A000000002020202062
:101380004A50322070696E203120776173206E6F71
:101390007420636F6E6E656374656420696E2033BC
:1013A00030207365636F6E64730D0A0053656E734E
:1013B0006F7220726573706F6E73653A2057414982
:1013C00054200D0053656E736F7220726573706FD9
:1013D0006E73653A204641494C20284A50322077A6
:1013E0006173206E6F7420646973636F6E6E6563E2
:1013F00074656420696E20313073290D0A00000085
:1014000053656E736F7220726573706F6E73653A99
:10141000202020204F4B20202020200D0A000000FB
:10142000546573742070726F63656475653A20202B
:10143000202020205041535345440D0A0D0A00003E
:1014400053656E736F7220726573706F6E73653A59
:10145000202020204641494C200D0A2020202047F2
:1014600041533A2564205245463A25640D0A00004E
:10147000546573742070726F63656475653A2020DB
:101480004641494C45440D0A0D0A000054657374E9
:1014900020686173206265656E3A202041424F5298
:1014A0005445440D0A0D0A0010B5084C0848206048
:1014B00001F0FFF9226813680021BE209847002040
:1014C00010BD02490A68D368BE20184728110020C1
:1014D0008000002010B50A4C6168BE208847BC28F7
:1014E00001D0012010BD07480460BE202168884754
:1014F000002010BD03490A689368BE201847000009
:10150000740000202011002010B50A4C6168BA2038
:101510008847B12801D0012010BD07480460BA20D7
:1015200021688847002010BD03490A689368BA20E3
:1015300018470000900000202411002080B50320EF
:1015400002F035FE0F2002F087FE00F002F80020C6
:1015500002BD70472DE9F8430546DFF8CC662878D0
:10156000DFF8BC76C10626D5B86810F00C0F3BD169
:101570003968880702D5A869002833D03968080778
:101580004EBF396871680909286A01F0F00181428B
:1015900006D200F00BFB002824D100F0EBF905E0A7
:1015A00000F0E8F9286A00F001FBD8B900F099FAD8
:1015B000BA6800F082FA2878C10774D500F0D6F92D
:1015C000082808D000F0D2F90C2802BFF86800F013
:1015D000030003282CD13968880364D56868002883
:1015E00040F00C810120B3E1A86988B1396841F06D
:1015F0000101396002F0B0FC04463868810700F14F
:10160000F48002F0A9FC001B0328F6D303209FE11D
:10161000386840084000386002F09EFC0446396893
:101620008807C8D502F098FC001B0328F7D3EDE724
:1016300000F096F921F48021396002F08DFC044617
:101640003868810340F1D48002F086FC001B6528D5
:10165000F6D3DBE7B0F5A02F09D100F081F941F412
:1016600080213960386840F48030386007E039689C
:1016700021F4803139603A6822F480223A60686847
:1016800060B102F069FC04463968880300F1B68055
:1016900002F062FC001B6528F6D3B7E702F05CFCA1
:1016A00004463868810340F1A98002F055FC001B14
:1016B0006528F6D3AAE702F04FFC001B0328C0F010
:1016C000C980A3E7E86880B1396841F48071396066
:1016D00002F042FC04463868410500F1EA8002F05D
:1016E0003BFC001B0328F6D390E7386820F4807099
:1016F000386002F031FC04463968480540F19C80AE
:1017000002F02AFC001B0328F6D37FE7706840082C
:101710004000706002F020FC04467068810740F1D0
:101720009D8002F019FC001B0328F6D36EE728B950
:1017300000F010F921F00401316012E0052808D111
:1017400000F008F941F004013160306840F0010018
:1017500006E03168490849003160306820F0040033
:101760003060A86841F2893868B102F0F5FB814623
:101770003168880700F1AA8002F0EEFBA0EB0900B7
:101780004045F5D342E702F0E7FB81463068810728
:1017900040F19C8002F0E0FBA0EB09004045F5D34E
:1017A00034E702F0D9FB001B0328C0F0A6802DE728
:1017B00002F0D2FB001B0328C0F0C58026E7F968C1
:1017C000DFF8680489088900F960F9680140F96068
:1017D00002F0C2FB04463868810140F1B88002F093
:1017E000BBFB001B0328F6D310E700F0C3F8E2E6CA
:1017F0006868B0F5803F7FF42DAF33E7297888071C
:101800001AD500F0B3F8042809D000F0AFF80C287E
:1018100002BFF86800F0030002287FF453AF396874
:10182000480502D5E86800285BD07968286921F06E
:10183000F85141EA00617960297808070ED5686996
:1018400000283FF463AF716841F00101716002F05C
:1018500083FB0446706881077FF52DAF2978480720
:1018600039D5B86D0024C10009D4B86D40F080505E
:10187000B8650124B86D00F0805000900098DFF842
:10188000B083D8F80010C8051BD4D8F8000040F485
:101890008070C8F8000002F05FFB8146D8F80010A5
:1018A000C8050ED402F058FBA0EB09000328F5D3BD
:1018B000ACE67868296920F0F85040EA0160786069
:1018C000BAE7A86801287FF432AF3EE71CB1B86DD3
:1018D00020F08050B865686AC8B3B96801F00C019F
:1018E0000C293FF47FAE0228386820F08070386001
:1018F0007FF465AF02F030FB0446396888013FF59C
:1019000050AFE86A296B401E090241EA0011686B7A
:10191000000941EA4041A86A0143A86B4008401E03
:1019200041EA4051E86B4008401E41EA4061F960DD
:10193000386840F080703860F96841F08071F96073
:1019400002F00AFB0446386881017FF531AF0020C0
:10195000BDE8F2833068400840003060316870476D
:10196000386820F48030386039687047B86800F013
:101970000C007047386840F0080038603968286A01
:1019800021F0F001014339607868E96920F47F4073
:1019900040EA0120786070472DE9F843DFF894723F
:1019A00005463868894600F00700484502D200F035
:1019B0008EF875D12978DFF86842880705D5A168C7
:1019C000A86821F0F0010143A1602878C1075FD524
:1019D0006868022802D121688A0307E0032802D13F
:1019E00021688A0102E018B921688A0703D457E008
:1019F0002268510554D5A168890840EA8100A06099
:101A000041F2893802F0A8FA0646686802280BD12C
:101A1000A06800F00C0008283AD002F09DFA801B64
:101A20004045F5D3032031E003280AD1A06800F037
:101A30000C000C282CD002F08FFA801B4045F5D307
:101A4000F0E700282ED1A06810F00C0F20D002F093
:101A500083FA801B4045F6D3E4E72878410705D593
:101A6000A168E86821F4E0610143A16028780107DA
:101A700006D5A068296920F4605040EAC100A06042
:101A800000F02FF8A26800F018F80020BDE8F283FB
:101A9000386800F007008145DFD200F018F8DCD08C
:101AA0000120F3E7A06800F00C000428F0D002F059
:101AB00053FA801B4045F5D3B4E75F49C2F30312E4
:101AC000895C584AC84010600F2002F0C5BB3968D5
:101AD000C90849EAC1013960386800F00700484583
:101AE00070474F498B680022002013F00C0F09D07B
:101AF0008B6803F00C030C2B02BFCB6803F00303CD
:101B0000012B13D10A68130704D44D4A1368C3F399
:101B1000032202E00A68C2F303124A4B53F8222060
:101B20008B6813F00C0F0ED110460CE08B6803F09D
:101B30000C03042B08BF444805D08B6803F00C034A
:101B4000082B08BF41488B6803F00C030C2B1AD1FB
:101B5000CB68C868C0F30210401C03F00303022BDB
:101B600003D0032B08BF394A00E0374AB2FBF0F23A
:101B7000C868C0F306204243C868C0F34160401CF7
:101B80004000B2FBF0F0704726482C4A006813680A
:101B90002F49C3F3022206E02248284A006813684E
:101BA0002B49C3F3C222895CC84070477CB5294EDB
:101BB000054630680024C10002D502F061FB0EE04A
:101BC000306840F080503060316801F08051009101
:101BD000009802F055FB316821F080513160B0F57A
:101BE000007F04D1802D0CD9A12D09D304E0802DD4
:101BF00088BF032405D801D1022402E0702D00D152
:101C000001240C480168C90844EAC1010160006868
:101C100000F00700A04201D0012076BD002076BD73
:101C200000100240FC06002090100240FFFFEEFE74
:101C300000700040002002403C1D000808100240D7
:101C4000941002404C1D00080024F40000127A0099
:101C5000DC8B0008581002403048016841F47001E4
:101C6000016000222E49086840F0010008608A6087
:101C70002C480A6802400A604FF48050C860002275
:101C8000086820F4802008608A614FF000602649CF
:101C90000860704722490868020704D42348026894
:101CA000C2F3032002E00868C0F3031027A252F831
:101CB00020008A6802F00C02042A04D0082A04D00A
:101CC0000C2A04D01EE01A481CE01A481AE0CB681F
:101CD000CA68C2F30212521C03F00303022B03D0A2
:101CE000032B08BF134800E01148B0FBF2F2C868AC
:101CF000CB68C0F306204243C3F34160401C400060
:101D0000B2FBF0F00C4A00BF0CA3106088681168A9
:101D1000C0F30310185CC1401160704788ED00E00B
:101D200000100240FFFFF6EA08ED00E094100240C8
:101D30000024F40000127A00FC06002000000000DD
:101D4000000000000102030406070809A086010044
:101D5000400D0300801A060000350C0040420F00C1
:101D600080841E0000093D0000127A000024F40067
:101D700000366E010048E801006CDC0210B5254811
:101D8000254C86B000F051F8009900F04EF8022280
:101D90000099C16841F40031C160C16801F40031AB
:101DA00000910099416941F00101416104214069BC
:101DB00000F00100009000980191002003900321A1
:101DC000072004910590029200F02AF8082201925F
:101DD00000F026F811482060206F60600020A060AD
:101DE000E0602061A0610C206061204600F066F890
:101DF00000B1FEE7204600F021F800B1FEE7012225
:101E00000021262002F0E0F9262002F0FAF906B0BF
:101E100010BD00004C1002400000002000440040B3
:101E200001A94FF0904002F0B5B8016841F00101FE
:101E30000160026802F001020092704738B50400A8
:101E400009D004F16805687808B900F028F800F0B6
:101E50000DF8012801D1012032BD606A08B100F0FF
:101E600023F800F014F821F02A0109E0022068703C
:101E700020680168490849000160204600F084B9E3
:101E8000816000F014F8BDE8324000F010BB20681B
:101E9000416821F4904141602068816870470021C9
:101EA0002970204600F0C0BB204600F09DBA206893
:101EB000016841F0010101602046704710B508B982
:101EC000012010BD00F168040221617001680A68F8
:101ED000520852000A6000210368196002685160CC
:101EE0000368996002F0D4F900206060607020708F
:101EF00010BDF8B5054605F150070C46787E01285F
:101F00001CBF797E22291E463CD10CB1100001D1A4
:101F10000120F2BD387E012834D00121397600201D
:101F2000F861787E222807BF3221797612207876F0
:101F30003A807A8005E034F8020B2968C0F3080083
:101F40000885788800B3401E7880334600228021BF
:101F5000284600F0D3FAF8B9A968B1F5805F04BF4C
:101F600028690028E7D02A6814F8011B1185E8E7E2
:101F7000787E322807BF22217976012078760020EA
:101F80003876F2BD0220F2BD3346002240212846B9
:101F900000F0B4FA0028EBD00320F2BD30B500F118
:101FA00058035C7C012C1CBF5D7C122D3ED109B115
:101FB000140001D1012030BD1C7C012C36D001253C
:101FC0001D7441651A805A80FF228168B1F5805FD7
:101FD00004D1016961B940F2FF1209E011B9016948
:101FE00029B905E0B1F1805F06D1016911B97F22FD
:101FF0009A8001E03F21998000215961597C122982
:1020000007BF32225A742221597401680A6842F4C7
:1020100080720A6001688A6842F001028A600021C9
:1020200019740068016841F0200101E0022030BD10
:102030000160002030BD38B5044604F15205206827
:10204000C169CA0709D50268D10506D50121016217
:10205000E06E40F00100E066E9752068C1698A071A
:102060000AD58168CA0707D5022202620121E06E03
:1020700040F00400E066E9752068C1694A070AD5A6
:102080008168CA0707D5042202620121E06E40F090
:102090000200E066E9752068C1690A070AD581680F
:1020A000CA0707D5082202620121E06E40F008004D
:1020B000E066E975E06E10B1204602F0EAF82068AB
:1020C000C169CA020AD581684A0207D54FF4801255
:1020D00002620120E875204602F0DCF82068C16940
:1020E0008A0605D50068810644BF204600F054FAF0
:1020F0002168C86902062CD50A68100629D5E87D32
:1021000012281CBFEA7D322A23D1288848B90A68E0
:1021100022F080020A602068016841F040010160FD
:1021200017E0A268B2F5805F04BF2069002808D1DB
:10213000E26C1088C0F308000885E06C811CE16443
:1021400004E0E06C421CE264007808852888411EA7
:1021500029802068C1694A0615D50268510612D542
:10216000016821F040010160E87D322802D122217E
:10217000E97503E0206800F008FAE8752046BDE83C
:10218000324002F088B831BDF8B505468A482A6861
:1021900013680340A868034328690343686903433D
:1021A000E8690343136010265368E86823F440533A
:1021B0000343536000210024AF69804B9A421CBF47
:1021C000286A0743906820F43060074397607C4892
:1021D0007C4FBA421FD1006800F00300032847D8A3
:1021E000DFE800F0023626450126E869B0F5004F29
:1021F00040F0BB8066B1012E00F09E80022E00F000
:102200009E80042E00F09D80082E00F09E80A2E0AB
:10221000FFF7BAFC97E06C4FBA420BD1006810F0A0
:102220000C005CD0042813D0082801D00C280DE045
:1022300002261DE0654FBA420CD1006810F0300054
:102240004DD0102804D02028F2D030280FD00FE035
:1022500004260DE05E4FBA4222D1006810F0C000A3
:102260003DD04028F4D08028E2D0C02800D10826F4
:102270009A42BAD1300006D0022E32D0042E32D08B
:10228000082E33D094E0FFF77FFC00286CD06968FB
:1022900001EB4102904202D30A03824229D287E035
:1022A0004C4FBA420CD1006810F4407017D0B0F512
:1022B000807FCDD0B0F5007FBAD0B0F5407FC5E7C4
:1022C0009A42D5D1076817F4406708D0B7F5806FF8
:1022D000BED0B7F5006FABD0B7F5406FB6E70026BC
:1022E000C6E73D48D3E7FFF7FCFBCEE74FF40040DD
:1022F000CDE736B1022E07D0042E07D0082E0ED01F
:1023000012E0FFF741FC03E034480AE0FFF7E9FB85
:10231000010E6A680002002301F0BEFF05E04FF4E1
:102320000000B0FBF1F000E00124A0F540712C4A60
:1023300091423DD22A6839E0FFF72EFC03E029489C
:1023400005E0FFF7CEFB400001E04FF48030696804
:10235000B0FBF1F100E001244FF6F0720A40C1F346
:10236000420002432868C26023E046B1012E09D032
:10237000022E0AD0042E0AD0082E11D018E0FFF742
:1023800003FC06E0FFF708FC03E013480AE0FFF750
:10239000A8FB6968B0FBF1F0296880B2C86008E06A
:1023A0004FF400406968B0FBF1F080B2D06000E00B
:1023B00001242046F2BD0000F369FFEF00800040D9
:1023C00088100240003801400044004000480040AE
:1023D000004C0040005000400024F400000024F4B1
:1023E00000FD0F000048E80190F82410CA0706D548
:1023F00002685368816A23F400330B43536090F8FA
:1024000024108A0706D502685368C16A23F4803312
:102410000B43536090F824104A0706D502685368AE
:10242000016B23F480230B43536090F824100A07B8
:1024300006D502685368416B23F400430B43536095
:1024400090F82410CA0606D502689368816B23F4BD
:1024500080530B43936090F824108A0606D50268D7
:102460009368C16B23F400530B43936090F82410DE
:102470004A0610D502685368016C23F480130B439D
:102480005360016CB1F5801F05D15368416C23F492
:10249000C0030B43536090F824100A0606D5016868
:1024A0004A68806C22F4002202434A60704770B58B
:1024B000044604F16805002068606FF07E462068DD
:1024C00001680A0707D5334600224FF40011204661
:1024D00000F014F858B9206801684A0709D5334656
:1024E00000224FF48001204600F008F808B10320D4
:1024F00070BD012068700020287070BD2DE9F84380
:1025000006460F4691461C4601F026FDB9F1000F24
:10251000804606F1680530D13068C1693940B9425A
:1025200030D014F1010FF7D084B101F015FDA0EB0C
:1025300008008442F0D209E014F1010F1DD02CB143
:1025400001F00AFDA0EB0800844216D23068016851
:1025500021F0800101603068026822F020020260F0
:102560003068016821F480710160306800F00DF876
:10257000687000202870032005E03068C169394088
:10258000B942D9D00020BDE8F283816849084900EA
:10259000816001207047000038B500F15A0253886D
:1025A000D17B22291CBFD47B322C36D18568B5F56E
:1025B000805F04BF0169002908D10468A18C0B4029
:1025C000416D0B80416D8B1C436506E0416D4C1CD9
:1025D00044650468A58C2B400B701188491E11803E
:1025E00089B2C1B901680B6823F020030B60D17B6D
:1025F000322902D11223D3730BE001680B6823F454
:1026000080730B6001688B685B085B008B60012145
:10261000D173FEF79EFB002032BD0068018B41F0B4
:1026200008010183022032BD7047F0B402461068F1
:1026300095681318506803EB5004C00721D54D442A
:102640001FE0F0BC02F10C00704713F8017B05F8A5
:10265000017B491EF9D1A0B1B60813F8011B06F0A1
:102660000306032E08BF13F8016B01EB0621494254
:10267000801C294405D011F8016B05F8016B401E40
:10268000F9D1A342DDD013F8016B16F0030104BFAA
:1026900013F8011BC91C30090F28DAD113F8010BFC
:1026A0000F30D6E780B5010086B00AD1DFF85C12A2
:1026B0000A6842F002020A60096801F00201009112
:1026C00000990FF2682151F8201001910122029225
:1026D000002102220492039101A9DFF8342252F86A
:1026E000200001F057FC07B000BD0FF24021DFF8D9
:1026F000203251F8201053F82000012208E00FF298
:102700002C21DFF80C3251F8201053F82000002261
:1027100089B201F023BD70B50446200086B00D4695
:102720000ED1DFF8E80100F03AF800F038F841691E
:1027300041F480414161406900F48040009000987C
:102740000FF2EC10734E30F8140001900221029148
:10275000049100210FF2E010039101A930F8140058
:102760000590301D50F8240001F014FC0FF2C41144
:1027700031F81400019002210FF2C010029101A95A
:1027800030F81400059006EB8404A06801F002FC08
:10279000206828602846FFF751FB06B070BD01682D
:1027A00041F002010160026802F002020092009909
:1027B000704770B5044686B05748584D584E206053
:1027C0004FF440615748606012220020A060012051
:1027D000E060002020616061E0612062686940F093
:1027E00002006861686900F00200009000980191A1
:1027F000012003900321042004910590029201A975
:10280000304601F0C7FB01A9304601F0C3FB286A3E
:1028100040F4800028620022286A00F480000090C2
:102820000098286840F4800028602120296821F45D
:10283000800129600F2101F0C7FC212001F0E1FC9B
:1028400000220F21222001F0BFFC222001F0D9FC40
:10285000204601F039FE0021204602F011F906B0B1
:1028600070BD7FB500F011F801F03EFF04E07FB5C8
:1028700000F00BF801F0A1FE060003D02946204627
:1028800000F00FF8304604B070BD04460D460899BC
:102890000998019000914FF47A76029629462046D5
:1028A000704710B5044601F05EFE2046BDE81040BA
:1028B0007FE71D487DE707B50A460121019102AB7C
:1028C0000093014601231848FFF7D1FF07BD1FB54C
:1028D0000A4600218DF808100123019302AC01463D
:1028E00000941148FFF7BDFF9DF8080004B010BD2B
:1028F000E0B500F003F8FFF7B4FF0EBD00920193BE
:102900000A46014601230848704700004C10024067
:10291000680600206C060020005800403810024075
:102920000004004881267000BC1000200040000018
:102930004000000080000000070000000700B1F523
:10294000807F02D34FF0FF30704701700120704745
:102950000078401E8041C043C00F704700F1010362
:10296000810704D010F8011B89B18107FAD10268F0
:10297000B2F10131914311F0803F04BF50F8042FB0
:10298000F6E710F8011B11B110F8011BFBE7C01AA4
:1029900070470268531C0360117070477CB5044691
:1029A00000250CB9012076BD04F15406706820B9E9
:1029B000204600F003FCB5603570206881688A000D
:1029C00003D5816821F00051816020688168CA00C8
:1029D0000FD48168DFF8B83341F0805181600A215B
:1029E000DFF8B0030268B2FBF3F0484300E0401E9A
:1029F000FDD120688168CA0008D4716841F01001D7
:102A000071600125B16841F00101B1607168CA06C9
:102A100001D481684A0700F19F80716841F002018A
:102A20007160816801F00301012902D10268D107B8
:102A300037D400F098F80BD1906800F09DF802D1DF
:102A40001268D0072DD400F096F820D108681BE05A
:102A50009042986800F003000BD1012802D11B6856
:102A6000D8071ED400F087F808BF086804D00020FB
:102A700004E0012803D1186800F0010088B99068CB
:102A800000F07AF803D1106800F0010000E00020A7
:102A900038B9DFF80C130A68606822F47C1202432C
:102AA0000A60E069A16BA26A41EA4031E068014333
:102AB000A0680143606A41EA0041521E41EA424176
:102AC000E26A012A1FBF206B0028024311432268DB
:102AD000DFF8D002D36803401943D16021688868C9
:102AE00010F00C0F23D1CA68DFF8BC02636B024000
:102AF000A06942EA803242EA4302CA60E06B0128E0
:102B000010D12168DFF8A4020A690240206C024358
:102B1000606C0243A06C0243E06C024342F001028D
:102B20000A6104E0206801694908490001612069DF
:102B300001282068016B05D1226A0909521E42EA68
:102B4000011101E0090909010163706820F0020028
:102B500040F00100706004E0706840F010007060A8
:102B60000125284676BDDFF84832DFF83015DFF85A
:102B7000302598427047886800F0030001287047AC
:102B8000F8B5054628688168480702D400F05AF86D
:102B900001D10220F2BD01212170284600F0B4FAD3
:102BA00001004BD16168CA0404D5A16821F0060177
:102BB000A16001E00022A260626800F0DAF86260C1
:102BC0002968DFF8DC21B1421EBF9942176817F06F
:102BD0001F0F03D1676827F4801767601C270F60F9
:102BE0002968B14218BF99420DD0136813F01F0F26
:102BF0001EBF156805F01F05052D1EBF126802F0E7
:102C00001F02092A0BD1CA68930105D5626822F414
:102C1000005242F48052626000222270B3E0616888
:102C200041F480116160DFF87C1409688A0105D5E0
:102C3000616821F4005141F48051616000212170EC
:102C4000F2BD054605F154042078012870472DE9AE
:102C5000F047054601276869DFF84441DFF85091E5
:102C60000828884608BF08262BD0286848451CBF7E
:102C7000DFF82C1488421AD1216811F01F0F1EBFF3
:102C8000226802F01F02052A1EBF216801F01F0101
:102C900009290CD0206800F44040B0F5004F09D05D
:102CA000216801F44041B1F5404F09D102E0C0680C
:102CB000C10705D5A86D40F02000A86501203CE0C3
:102CC000042601F049F9824628680168314236D16C
:102CD00018F1010FF8D0B8F1000F05D001F03CF960
:102CE000A0EB0A008045EFD2A86D40F00400A86573
:102CF000032022E0DFF8AC130968082E08BF082281
:102D000002D04A0401D404220260A86D40F400708D
:102D1000A8658FB12868C26812F4406F0CD188048E
:102D20000AD4A86D20F48070A865A86DC10403D4EE
:102D3000A86D40F00100A8650020BDE8F08701689B
:102D40000A0758BF002748451CBFDFF850138842C8
:102D50000DD0216811F01F0F1EBF226802F01F0264
:102D6000052A1EBF216801F01F010929C2D1C168CF
:102D7000C3E7DFF87C13DFF83860DFF820330A4060
:102D800042F4807270478A6842F004028A60F2BDA1
:102D900040420F00FC0600200068006C70470000F5
:102DA0000803045007C0F0FFFDBFFFFF02F8FFFF5C
:102DB00000000450F8B502460846002102F1540410
:102DC00000912578012D01D10220F2BD012323704D
:102DD00013689D686E0700F15881476805681F26D3
:102DE000052F4FF0060C0BD20CFB07F7D3F830C0C1
:102DF000BE402CEA060605FA07F737431F631DE0BD
:102E0000092F08D87F1F17FB0CF7D3F834C000F048
:102E10005DF95D6312E00F2F08D20A3F17FB0CF734
:102E2000D3F838C000F052F99D6307E00F3F17FB5D
:102E30000CF7D3F83CC000F049F9DD6307251668AC
:102E4000B36813F00C0F6DD103688768092B0DD997
:102E50000A3B03EB430CD6F818E005FA0CF32EEA14
:102E6000030307FA0CF71F43B7610BE003EB430CB6
:102E7000D6F814E005FA0CF32EEA030307FA0CF770
:102E80001F43776113684769DE68D0F810E0F608E1
:102E9000760006F00606AEF1010E07FA06F6BEF160
:102EA000030FDFF850721AD8DFE80EF002080E1494
:102EB000D3F860C000F010F91E6633E0D3F864C0A8
:102EC00000F00AF95E662DE0D3F868C000F004F95E
:102ED0009E6627E0D3F86CC000F0FEF821E01E6E7D
:102EE00000F0E8F803D11E6E26F000461E66136857
:102EF0005E6E00F0DFF803D15E6E26F000465E667F
:102F000013689E6E00F0D6F803D19E6E26F0004640
:102F10009E661368DE6E00F0CDF803D1DE6E26F0FB
:102F20000046DE6613689E6806F00306012E02D195
:102F30001F68FE0735D40668012707FA06F6C7683A
:102F4000B7F1804F06D0D3F8B05025EA0606C3F893
:102F5000B0601AE0D3F8B0703E43C3F8B0600768C1
:102F600083681668092F08D3093F07EB4707D6F88F
:102F700018C000F0A5F8B56107E07F1C07EB470714
:102F8000D6F814C000F09CF875610068DFF868316D
:102F9000112802D11D682E0203E0122803D11D68FA
:102FA000EE0177D404E0002874D11D686E0271D45C
:102FB0001568AA6800F07AF802D12E68F20764D486
:102FC000DFF83871354EDFF8D8C0BD420CD100F0C3
:102FD0006BF803D1DCF80020D20756D4B26800F0B9
:102FE00065F822D132681DE0BA68654502F0030237
:102FF0000CD1012A02D13A68D20746D4B26800F057
:1030000055F808BF326804D0002204E0012A04D138
:103010003A6802F00102002A37D100F045F804D1E5
:10302000DCF8002002F0010200E000226ABB112857
:1030300017D1BD4218BFB5422CD1186840F400002A
:10304000186078222E4B2F481D68B5FBF0F05043D6
:103050000090009800281EBF009A521E0092F8D1DE
:1030600018E0122808D1BD4218BFB54212D1186825
:1030700040F0807018600DE0002808BFBD4209D103
:103080001A6842F480021A6004E0606840F0200090
:1030900060600121002020700846F2BD000204504B
:1030A000000104500C000450DCF8082002F0030278
:1030B000012A7047076806F0F846B6EB876F70473D
:1030C000BD402CEA0505BB401D437047BE402CEABD
:1030D0000606BD403543704707EA0C07D0F800C02C
:1030E00047EA8C673E4346F000467047806D704764
:1030F000FEF1FFFF00F0FF0308030450000004503E
:10310000FC06002040420F0038B504462168FFF756
:1031100032FD02D10A68D00718D488686FF39E1078
:1031200098B9886840F00100886000F015FF0546F6
:1031300020680168CA0709D4816841F001018160F3
:1031400000F00AFF401B0328F2D32AE0002032BD22
:1031500038B5044600F01FF81BD10268D10718D516
:10316000816801F00D01012912D1816841F002014D
:10317000816003202168086000F0EEFE05462068AB
:103180008168C80705D500F0E7FE401B0328F6D389
:1031900007E0002032BD2068816801F003010129A9
:1031A000704700F001F832BDA06D40F01000A0653E
:1031B000E06D40F00100E0650120704770470000BD
:1031C0007CB5054605F154040E462078012801D14E
:1031D000022076BD012121702846FFF7B9FF0100CA
:1031E000606821D120F4885040F0020060602868B7
:1031F000826822F08042164386602868826842F026
:10320000004282604FF47A402A689368002B13D5FD
:10321000401EFAD1606820F0020040F010006060AB
:1032200000202070012076BD40F010006060012178
:1032300000202070084676BD606820F0020040F053
:1032400001006060F4E700000EB4C0B5024603A8B8
:1032500000210190009101AB0121044878440C3019
:1032600001F03CFC06BC5DF810FB00BF03590000F8
:103270007CB53848384D394E394B3A4A3A49019075
:103280000096284602F012FE012420B9284602F0DA
:10329000B3FD00B90024204676BD38B513460A4672
:1032A0002D4D0146284602F017FE012420B928467C
:1032B00002F040FE00B90024204632BD10B50146A0
:1032C000254802F04FFE0BE0234B93F8CA1002464C
:1032D000012021B103F1CD00016811600020704789
:1032E000012400B90024204610BD69461A487047E1
:1032F0001FB58DF801000124080018BF01208DF8CA
:103300000000ADF80430FFF7F0FF02F06BFE00B9EB
:103310000024204604B010BD10B50F4802F0DAFEBC
:10332000DEE73EB500F00DF802F0E0FE04E03EB549
:1033300000F007F802F01CFF012500B9002528461F
:103340003EBD00931346069C01940A46014602487E
:10335000704700007B860008C80700205D870008D2
:10336000F98700086F86000871850008034600E0B1
:103370005B1C1A78002AFBD111F801CB83F800C03E
:1033800013F801CBBCF1000FF6D1704780B52DEDDD
:10339000048BB0EE408AF0EE608A032000F026FD38
:1033A00000EE100AB8EE409A022000F01FFD00EE79
:1033B000100AB8EE400A39EE400ADFED1D0A20EE91
:1033C000200A80EE080A80EE280ABDEC048B01BDBD
:1033D00080B5052000F00AFD00F0BEFA4FF066321D
:1033E000144B00F0C7FA0022134B00F0C3FA024658
:1033F0000B461248124902F051FF124A124B02F0DA
:10340000BFFF0022114B00F0B5FA0022104B00F074
:1034100083FB41EC100B03F0D7F853EC102B0D4855
:103420000D4900F079FB03F051F900EE100A01BDDF
:1034300000B2444966660A400000303FFB3A70CE55
:1034400088D2FD3F0AD7A3703D0A0F4080842E41E9
:1034500074C14041A4703D0AD72797C041B20A31D8
:103460003D29A8BFF02005DA00294FBF00200A300F
:103470000006801503A10844D0ED000A80EE200A62
:103480007047000008AC2C3F60762F3FB840323FB9
:103490000F0B353F67D5373FBE9F3A3F166A3D3F1A
:1034A0006E34403FC5FE423F1DC9453F7593483FBE
:1034B000CC5D4B3F24284E3F7CF2503FD3BC533F62
:1034C0002B87563F8351593FDA1B5C3F32E65E3F04
:1034D0008AB0613FE17A643F3945673F910F6A3FA7
:1034E000E8D96C3F40A46F3F986E723FEF38753F4C
:1034F0004703783F9FCD7A3FF6977D3F0000803F9E
:10350000C3F5803F85EB813F48E1823F0AD7833F87
:10351000CDCC843F8FC2853F52B8863F14AE873FE3
:10352000D7A3883F9A99893F5C8F8A3F1F858B3F3D
:10353000E17A8C3FA4708D3F66668E3F295C8F3F99
:10354000EC51903FAE47913F713D923F3333933FF3
:10355000F628943FB81E953F7B14963F3D0A973F4F
:103560000000983FC3F5983F85EB993F48E19A3FAB
:103570000AD79B3FCDCC9C3F51EC100B00B500F01F
:1035800003F841EC100B00BD40F2FF7C0CEA115235
:1035900040F2FE33D21A17DD352A1DDAB2F11503D7
:1035A00008DA6FEA4C53D34031EA5301C918994302
:1035B000002070476FF00002DA4030EA52008018B5
:1035C00041F100019043704701F0004104BF41F018
:1035D0007C5141F47001002070470000C1F30A5390
:1035E00040F2FE329B1A14DDD3F120034FEAE17260
:1035F00008DDC90241EA505141F00040D84080182E
:103600005040704703F2E13010B1D24382F00040E5
:103610007047002070470000C0F3C75181B1FF29F7
:1036200006D0C110400721F0E04101F16051704720
:1036300041020CBF40F4E0016FF0004100207047F0
:1036400000F0004100020AD0B0FA80FC00FA0CF051
:1036500001F16051A1EB0C5101EBD0214005704705
:1036600038B5044600F078FC054600F075FC401BB8
:10367000A042FAD331BD00000CB430B583B004468B
:1036800006A802900A4600250194009502AB01A904
:10369000084878441E3001F021FA01990D70002885
:1036A0004EBF04460198041B204603B030BC5DF8B1
:1036B0000CFB00BFDFF2FFFF70B50D788DB970BD58
:1036C00011F8013F1678B34206D0401C294603F09A
:1036D00031F840B10146224612F8013F002BEFD1EC
:1036E00070BD0C46F2E770BD2DE9F047DFF8EC51F4
:1036F00006462878002701288A461446984608BFBF
:10370000022028D0012129704CF25039484600F09F
:1037100036F801001DD12246434650466F601EB95F
:1037200000F0C2F801270AE0012E18BF022E06D1D0
:10373000114600F0C3F8022E08BF4FF48027484618
:1037400000F01DF82FB1DFF898110A6822EA070788
:103750000F6000212970BDE8F0876348C168002927
:1037600002D5624A624906E0012070475C48016860
:1037700041F0004100E0026001600020704770B538
:10378000054600F0E9FB2E18564C2068C1030FD502
:1037900015F1010FF9D000F0DFFBB042F5D30320A3
:1037A00070BD2068C10744BF01212160002070BDA9
:1037B000206881071DD4216808071AD42068C10633
:1037C00017D42168880614D42068410611D42168D2
:1037D00008060ED42068C1050BD42168880508D4DA
:1037E0002068410405D4216808045CBFA068002853
:1037F000D7D500F002F8012070BD3A4937480A6871
:10380000930703D5426842F0010242600B681A0731
:1038100003D5426842F0020242600B68DA0603D523
:10382000426842F0040242600B689A0603D542687F
:1038300042F0080242600B685A0603D5426842F023
:10384000100242600B681A0603D5426842F020025B
:1038500042600B68DA0503D5426842F040024260DC
:103860000B689A0503D5426842F0800242600B68FB
:103870005A0403D5426842F4807242600B681A040D
:1038800003D5426842F4007242608A68002A03D578
:10389000426842F4806242604CF2FA32886840F03A
:1038A000004088600A60704710B50D490C6844F00C
:1038B00001040C6040F8042B036010BD30B5084AC9
:1038C000136843F48023136072B62022F1E80245A6
:1038D000E0E80245521EF9D162B630BD0411002065
:1038E00014200240102002400820024023016745B6
:1038F000AB89EFCD400D491840EA81200CD2490D2B
:10390000A1F58061491C40F0004005DBD1F11F01A9
:1039100054BFC840C01770470020704741EC100BDF
:1039200001BD80B553EC112B51EC100B03F08AFA5A
:10393000F4E70000C11768B14840401AB0FA80F2BD
:103940009040D21CC907C2F5846241EA025202EBE0
:10395000D021400570470000014648B1B0FA80F11F
:103960008840C91CC1F58461090501EBD0214005DF
:1039700070470000B0B581EA030C0CF0004C40F237
:10398000FF7515EA11541DBF15EA1357AC42AF423B
:1039900039E0E41923EA455343F48013C90241F0A6
:1039A000004141EA505EC7021100A7FB0202002855
:1039B0004FF00000EEFB01204FF00001E3FB072178
:1039C00018BF42F00102401800214941E3FB0E01FB
:1039D000A4F580640F0302D252004041494154F1E2
:1039E00001046CDD470872F1004250F1000051EB18
:1039F0000451A1F580115CBF41EA0C01B0BD4CEA55
:103A000005510020B0BD05EA1357AC4214BFAF42C8
:103A100041E050EA410E1CBF52EA430E02E061460B
:103A20000020B0BD24423C441BD15FEA070EF6D013
:103A3000090302BF01460020AEF1140EB1FA81F76E
:103A4000AEEB070401FA07FE0C37C7F1200100FABC
:103A500007F7C8404EEA000E23EA455343F48013AB
:103A6000A2E733F00043B3FA83F704BFB2FA82FE51
:103A700077440B3FE41BB7F1200E2FBF02FA0EF381
:103A8000BB40C7F1200E22FA0EFE38BF43EA0E03F8
:103A9000BA40641C82E750EA410E14BF52EA430E5A
:103AA0006FF000014FF4001717EB430F8ABF194660
:103AB00017EB410FB5E74CEA05510020B0BDD4F13A
:103AC0000104B4F120070FDAC4F12007520828BF1F
:103AD00042F0010210FA07F501FA07F7E1BF2A43A5
:103AE000E0403843E1400FE0352C98DCC7F120047A
:103AF00052EA400220FA07F218BF42F0010231FAFE
:103B000007F0A1400A43002172F1004250F1000089
:103B100051EB0C01B0BD000070B44FF0004591EACC
:103B2000030F42F1C3836B40841A71EB030604D286
:103B30006E40001BB141121973414FF4001C1CEB85
:103B4000410F34BF7CEB430682E00C0DA4EB13560F
:103B5000362E7BDC012E45EAC32341DC43EA525377
:103B600012BFD20292025B08240545EAC12141EA54
:103B70005051D2EBC020994125D407D1B0FA80F63C
:103B800010FA06F162D00020203608E0B1FA81F682
:103B9000B140C6F1200220FA02F21143B0404FEAD0
:103BA000F474B4EB465434F001064FEA74040AD8B6
:103BB000D6F50016760D04F00044F04061FA06F2E6
:103BC0005040F1404840C00A40EA415021F00041D5
:103BD00028BF5FEA500550F1000044EBD12135E0E9
:103BE000DB0A45EAC121C90AB6F120050EDD42EA29
:103BF0000242120CC5F1200603FA06F6EB4042EA37
:103C000006056D42984161F100010DE062FA06F58A
:103C1000F240554063FA06FC82EA0C02F3405A4037
:103C20006D42904161EB030111F4801F05D1641EC8
:103C3000620502D06D004041494121F480114308E2
:103C400075F1004350F1000041EB045170BC704726
:103C50001CEB410F15D223F0004352EA43060BD070
:103C60004FEA4C0CBCEB410F04D80C0D661E342EF1
:103C7000B7DDEBE7801A994150EA410608BF002101
:103C8000E4E708BF1CEB430F28BF6FF00001DDE73E
:103C90002DE9F84FDFF840410546207801288A4693
:103CA00008BF02203FD0012121704CF25039484614
:103CB000FFF765FD834698BB6060DFF820612868E8
:103CC00001280CD1686800F032F84846FFF757FD2C
:103CD00083463168DFF80801014031601EE04FF093
:103CE000FF30CAF800000020AF68DFF8F88000E07D
:103CF0007F1CA968EA6851188F4216D26968384655
:103D000000F027F84846FFF73AFD316808EA01015C
:103D100031600100ECD08346CAF8007000F034F83E
:103D2000002020705846BDE8F28F8346F6E7C207B0
:103D30002A4903D50A6842F004020A60800703D5C5
:103D4000086840F4004008600A6842F480320A6063
:103D50007047C907214A04D5116821F40061116038
:103D600003E0136843F400631360116821F4FF61FA
:103D700041EAC0011160106840F002001060116853
:103D800041F4803111607047174801688A050FD5EA
:103D9000026822F400720260016841F4006101606F
:103DA000026822F400620260016841F4007101605F
:103DB000026851050FD5016821F480610160026835
:103DC00042F480520260016821F48051016002686F
:103DD00042F4806202607047041100201420024007
:103DE000FB7FFFFF05F8FFFF0020024010B50146F2
:103DF000564B03EB410003EB8102848854481C6757
:103E0000936D0360BDE81040F8B504460D464F4E73
:103E1000FFF76CF906EB8507F8B9B86D2060002054
:103E2000E0634FF4803060600020A061A06001205A
:103E300020610020E060E0610120A062002060625B
:103E40000120E062002020630420606100206063A4
:103E5000012020624FF48050A0632946204600F0E4
:103E600025F82046FEF79AFD00212046FFF7A8F925
:103E7000386C306106F110010720B06101207061DB
:103E80002046FEF797FF30702046FEF779FE30702F
:103E90000A212046FEF7DBFE28B92046FEF77CFF0C
:103EA00070807088F2BD0020F2BD000038B5084671
:103EB000052986B00446274D1DD8DFE801F003032D
:103EC000030B1313296841F0010129602A6802F0ED
:103ED00001020EE0296841F0020129602A6802F01F
:103EE000020206E0296841F0040129602A6802F014
:103EF000040200920099154A02EB400102EB800295
:103F00008B8801930B2100230291039301A9906AEE
:103F100000F040F8052C16D8DFE804F0030C0C0C78
:103F20000C0C296841F400512960286800F4005005
:103F3000009007E0286840F400502860296801F4E8
:103F400000510091009807B030BD000078060020B5
:103F5000A00F00204C10024001480068704700BFCD
:103F60002C1100204FF4001C1CEB410F94BF1CEBE4
:103F7000430F09E041EA030C50EA4C0C52EA0C0CE6
:103F800003D2994208BF9042704714BF8B428242CD
:103F9000704700002DE9F84F4FF00008734BDFF831
:103FA000D091DFF8D0A14FF00F0B07468E462BE0E3
:103FB000714CA74214BF072406248C402C4349F8B7
:103FC0002240C1431A68DEF804400A40E40348BFB7
:103FD00002431A605A68DEF804400A40A40348BF4E
:103FE00002435A609A68DEF804400A40E40248BF7F
:103FF00002439A60DA680A40DEF80410890248BF7A
:104000000243DA6008F10108DEF8001031FA08F026
:1040100000F09C80012202FA08F212EA0100F1D0BD
:10402000DEF80440022C18BF122C4FEA880111D18F
:104030004FEAD80407EB840C01F01C04DCF8205094
:104040000BFA04F6B543DEF8106006FA04F42C43CC
:10405000CCF820404FEA480C03243D689EF80460E9
:1040600004FA0CF4E44306F00306254006FA0CF6C5
:1040700035433D60D243DEF80450012D18BF022DB8
:1040800003D0112D18BF122D11D1BD68DEF80C60C0
:10409000254006FA0CF63543BD607D68DEF8046005
:1040A000C6F30016154006FA08F635437D60DEF8C3
:1040B000045005F00306032E07D1FE6AC5F3C005C0
:1040C000324005FA08F52A43FA62FA681440DEF82D
:1040D000082002FA0CF22243FA60DEF80420D20033
:1040E00090D5DAF8002042F00102CAF8002001F071
:1040F0000C01DAF8002002F0010200920BFA01F53F
:10410000009A4FEA980259F8224024EA0505B7F1CF
:10411000904F08BF002418D0184CA74208BF0124B4
:1041200013D0174CA74208BF02240ED0154CA7424B
:1041300008BF032409D0144CA74208BF042404D0AC
:10414000124CA7427FF434AF052436E7BDE8F18F67
:104150000069084018BF0120C0B2704781B0002A32
:1041600014BF8161816201B070470000000401400A
:104170000800014060100240001800480004004898
:1041800000080048000C00480010004800140048D7
:104190000901020081B002D42948815405E0294870
:1041A00002F00F02104400F8041C01B07047264AC8
:1041B00013684FF6FF0100020B4000F4E060184363
:1041C000224908431060704738B51F4B1C68C4F380
:1041D0000223C3F10704052C28BF04241D1D072D4D
:1041E00034BF0023DB1E012505FA04F4641E2140C0
:1041F000994005FA03F35B1E1A401143BDE83440B1
:10420000C6E7010007D4012200F01F01104B8A40CD
:10421000400943F82020704710B5401EB0F1807F60
:1042200001D3012010BD0B4C60600F214FF0FF3017
:10423000FFF7AEFF0022A26007202060002010BD23
:1042400000E400E018ED00E00CED00E00000FA05ED
:1042500000E100E010E000E010B508490A680446FB
:104260004FF47A70B2FBF0F0FFF7D6FF0022214640
:104270004FF0FF30FFF7A8FF002010BDFC06002024
:10428000DFF80800006800F4C0607047007000406C
:104290007047704770477047B3BBD9B1B2F5803FE4
:1042A0007DD2022A1ED98C46B1FBF2F102FB11C36A
:1042B0001B0443EA1043B3FBF2FC02FB1C3380B245
:1042C00040EA0343B3FBF2F002FB103240EA0C4039
:1042D00000237047022A05D98446B0FBF2F002FBA6
:1042E00010C270474AB105D100F0010249085FEAE7
:1042F0003000704700220023704702F0BDBF0B0062
:104300000200002100207047904271EB030CF6D3AD
:10431000B3F5803F2FD2F0B5B3FA83F7B1FA81F449
:10432000A7F10F0E3D1B5340CEF1200602FA0EF20C
:10433000F3415340B5F10F0746D80F3C2C444140A0
:10434000C4F12006A040F1414140B1FBF3F603FB6C
:104350001611A2FB0645001BA94102D2761E801849
:10436000594180EA010221FA0EF362FA0EF20021AD
:104370005A403046F0BD30B4B1FBF3FC03FB1C11D6
:10438000A2FB0C45001BA94103D2ACF1010C801823
:10439000594130BC02460B46604600217047B2F1DD
:1043A000807F65D3F0B5B2FA82F7B1FA81F4C7F134
:1043B0000F063D1B22FA06F307F1110EF2412035DC
:1043C0005A40B5F10F07B8D94140C4F12006A040CA
:1043D000F1414140B1FBF3FC03FB1C11A2FB0C4576
:1043E000001BA94103D2BCF1010C801859410F2FC9
:1043F00012D30F3FC90341EA5041B1FBF3F603FB6F
:104400001611A2FB0645D4EBC030A94102D2761E9C
:104410008018594146EACC3C07B34140C7F1200619
:10442000B840F1414140B1FBF3F603FB1611A2FB8A
:104430000645001BA94102D2761E8018594180EA28
:10444000010221FA0EF3C7F1200462FA0EF20CFA0F
:1044500007F05A402CFA04F13043F0BD80EA010223
:1044600021FA0EF3002162FA0EF260465A40F0BDC6
:104470008C46B1FBF2F102FB11C31B0243EA10634D
:10448000B3FBF2FC02FB1C331B024CEA002043EAA4
:104490001063B3FBF2FC02FB1C331B024CEA00204E
:1044A00043EA1063B3FBF2FC02FB1C331B024CEA31
:1044B000002043EA1063B3FBF2FC02FB1C324CEA1F
:1044C000002000237047000038B5040001D101200E
:1044D00032BD04F13C05687820B9002129702046DE
:1044E00000F0CCFA00F052F86068216820F07060AB
:1044F00008612068816821F400418160A06858B19A
:10450000E168012904D1226840F40040906003E092
:10451000216840F404408860E068022803D12268E2
:104520004FF4006151602068416841F0007100F073
:1045300040F86069216922680143A06941EA0021CD
:10454000D160206AE1690143206801602068016848
:1045500041F00101016000206860202068700020A7
:104560002063A87032BD38B5040001D1012032BDEE
:1045700004F13C0500F00AF8204602F07EFE00201F
:10458000686068702063A870287032BD242068704D
:1045900020680168490849000160704741465A4651
:1045A000284600F0EDB9284600F053BA00283068DC
:1045B000416841F40041416070472DE9FE4F00F031
:1045C0007EF863D10C9C002C59D00D9F380056D03A
:1045D00028688069000459D43078012856D000F04A
:1045E00017F98246212000F0F2F800F021F940B1DD
:1045F0007068042802D10021317040E00020307042
:104600003FE0B7F5807F009009DB4FF08073FF2219
:104610004946FFF7C8FFFF20A046044619E000F016
:1046200042F84946FFF7BFFF3846F5E7286818F813
:10463000011B00F032F818D1C8B1CDF800A05B46DC
:1046400000F038F8E8B900F024F80ADA00F0D7F8FA
:10465000BCB252465946284600F079F90028E5D008
:104660000AE000F0C3F8FF24F3E70028F1D159462F
:104670005246FFF795FF30B17068042801D1012040
:1046800005E0032003E000F020F800E00220BDE890
:10469000FE8FB8B2B0F5807F70478162641EA7F1CB
:1046A0000107B8B270474FF00073FAB27047CDF807
:1046B00000B0434600228021284600F01AB9054682
:1046C00005F13C0670782028704729682020C861D1
:1046D0002968DFF858014A6802404A60202070705B
:1046E0000020B070307070472DE9FE4FFFF7E7FFF4
:1046F0006AD10C9C002C60D00D9F38005DD02868DA
:104700008069000460D4307801285DD000F080F822
:104710008246222000F05BF800F0B2F840B17068E9
:10472000042802D10021317047E00020307046E0BB
:10473000B7F5807F4FF41050009009DB4FF0807385
:10474000FF224946FFF72FFFFF20A04604461CE04A
:10475000FFF7A9FF4946FFF726FF3846F5E7296826
:10476000486A08F8010B641EA7F10107B8B21AD114
:10477000D8B1CDF800A05B46FFF79CFFF8B9FFF772
:1047800088FF0CDA00F03BF8BCB2CDF800A05B4625
:1047900000220421FFF790FF0028E0D00FE000F096
:1047A00025F8FF24F1E70028EFD159465246FFF7DC
:1047B000F7FE30B17068042801D1012005E0032024
:1047C00003E0FFF782FF00E00220BDE8FE8F70707B
:1047D00043464020B070494600207060CDF804A0E8
:1047E000CDF800B02846BDF80820704700200090A2
:1047F0004FF08073FF224946284600F02AB9002076
:1048000000904FF00073FAB24946284600F021B9F3
:10481000DDF838B0ADF808200120307098468946A0
:10482000FFF79ABBEAB2204600F013B900E800FE99
:104830002DE9FC4100F046F84FF08073FFF7F2FFDE
:1048400000F01AF818B1206C04280FD107E0012DF0
:1048500007D000F00EF820B1206C042806D101200A
:1048600005E000F039F800F040F800B10320BDE8A1
:10487000F6812168380A886232464146204666E061
:104880002DE9FC4100F01EF80023FFF7CBFFFFF7F6
:10489000F3FF18B1206C042811D107E0012D07D0D7
:1048A000FFF7E7FF20B1206C042808D1012007E0C2
:1048B00000F012F80022402100F019F800B10320A6
:1048C000BDE8F68104464FF40050009017461D469F
:1048D000DDF82080099E70472068FFB2876200964D
:1048E00043467047CDF800801923002280212046DE
:1048F000FFE7F8B5069F05460E461C4602BB286832
:1049000081693140B14220D014F1010FF7D024B1B8
:10491000FFF722FBC01B8442F1D205F13C002021AD
:1049200041700021817001700320F2BD14F1010F6C
:1049300006D0002CF1D0FFF70FFBC01B8442ECD354
:10494000286881693140B142F0D00020F2BD70B5D5
:1049500005460C4616462868816988070ED400F083
:1049600025F808B1012070BD14F1010FF3D024B176
:10497000FFF7F2FA801B8442EDD21BE0002070BDED
:1049800070B505460C4616462868816988060BD422
:1049900000F00CF830B924B1FFF7DEFA801B844236
:1049A000F2D207E0012070BD002070BD32462146E2
:1049B00028460FE000F005F8002181700170032007
:1049C00070BD05F13C002022416841F020014160AA
:1049D0004270704770B505460C4628688169C80664
:1049E000164611D5286881698A060FD414F1010F83
:1049F000F8D024B1FFF7B0FA801B8442F2D205F15F
:104A00003C0020214170D7E7002070BD1021C1611A
:104A100020202968C86128688169CA0703D4816990
:104A200041F0010181612968124800F005F8042174
:104A300000F008F8012070BD4A6802404A6005F1A4
:104A40003C0070474160202141700021817001705D
:104A5000704770B50568049C6E6807480640C1F34E
:104A60000901314341EA024119432143696070BDA4
:104A70000000000000E800FE009800FC7047000005
:104A800030B500F13C025378202B0FD11478012C63
:104A90000CD000F017F81D6825F480551D600368E0
:104AA0001C682143196000F003F830BD022030BDBE
:104AB0000068016841F00101016020205070002071
:104AC00010707047012313702423537003681C680F
:104AD000640864001C600368704700002DE9F84F0B
:104AE00074A7A2B0D7E90045CDE900452C9EDFF8B8
:104AF000307C04918DF843605FF000016FA40D914C
:104B000012944FF0FF368246904699460FE0C34616
:104B10002C461BF8011B0498D0470028049000F095
:104B2000B2800D98401C641E0D90F2D1A84498F8F4
:104B30000000252807D100210791089109910A91C9
:104B40000B910C910DE06A463146404602F0C6FBDF
:104B5000050001D10D98B5E0D9D50125E6E741F072
:104B6000010118F8010F2028F9D023280CD02B2898
:104B700004D02D2805D0302809D086E041F002016C
:104B8000EFE741F00401ECE741F00801E9E741F00B
:104B90001001E6E700200F900AE00F98B84205DA0E
:104BA00000EB800302EB4302303A0F9208F1010858
:104BB00098F80020A2F130000A28EED398F80000FF
:104BC0002E2818BF0E9629D118F8010F2A280BD1CC
:104BD000D9F80000C9F8000008F1010850F8042BCA
:104BE000C9F800000E9219E02D280CBF18F8010B2F
:104BF000002000220E920BE040B90E9ABA4205DA6C
:104C000002EB820403EB4403303B0E9308F10108EE
:104C100098F80030A3F130020A2AEDD3ADF8401025
:104C2000129898F8001001F085FD08B118F8010BF2
:104C30008DF842009DF84200682804BF98F80010E3
:104C4000682903D162208DF8420008E06C2804BF77
:104C500098F800006C2804D171218DF8421008F1F9
:104C6000010813A806904A4618F8013B02A95046CD
:104C700000F068F838B913AA02A9504600F0CAF942
:104C800000287FF554AF30461CE02A2882D1D9F89D
:104C90000020C9F8002052F8040BC9F800200028B1
:104CA0000F9003D540420F9041F0040108F1010834
:104CB00084E700000000000000000000686A6C74D7
:104CC0007A4C000023B0BDE8F08F622820D068281D
:104CD00011D06A2803D06C2827D0712825D1086804
:104CE000C01D20F007000860D0E9002308300860EC
:104CF000194610467047002A0A680A60106803D0F7
:104D0000121D0A6000B217E0121D0A6080B217E09F
:104D1000002A0A680A60106803D0121D0A6040B2B7
:104D20000AE0121D0A60C0B20AE0002A0A680A609E
:104D3000106803D0121D0A60C1177047121D0A6067
:104D4000002170477CB50D4611461C462E69B4F112
:104D5000250200F04D811C3A00F08680121F022AC5
:104D600040F282800E3A00F00781521F5AD0093A71
:104D70007AD0921E16D0521E35D0521E022A73D9F6
:104D8000121F30D0521F00F09A80521E4AD0521E7D
:104D900000F0E480D21E00F0FD80921E42D0D21EB0
:104DA00040D02BE195F83A206C2A09D06869421C62
:104DB0006A610A680A6052F8043B0A60335427E1CA
:104DC0000A680A6052F8043B0A60002100930191CE
:104DD0004FF0FF322A6329466A4600F096F9002810
:104DE00040F1168101E195F83A000122FFF76DFFCD
:104DF000C5E900010023994204DA6869411C696130
:104E00002D210DE0288F810704D56869411C696157
:104E10002B2105E0C00722D56869411C696120216A
:104E200031541CE095F83A000022FFF74EFFC5E927
:104E3000000195F83800010711D5D5E900230020BD
:104E4000834208BF82420AD044F02000782806D16D
:104E5000686930213154401C411C69613454214639
:104E600068693044E86083E00868C01D20F00700EE
:104E70000860D0E9002308300860C5E90023D5E9BF
:104E80000001C80F04D06869411C69612D210DE043
:104E9000288F810704D56869411C69612B2105E0D1
:104EA000C00704D56869411C6961202131546869D3
:104EB0003044E8602146284600F032FAA8E005F1C7
:104EC0003A02507820B14FF0FF340FF6243070E0F2
:104ED0001078622808D0682824D06A2812D06C285C
:104EE0002ED071280ED02BE00A680A6052F8040B0D
:104EF0000A6020B94FF0FF340FF60C3059E0E96A30
:104F0000017085E00A680A6052F8040B0A6020B953
:104F10004FF0FF340FF6F0204BE0EA6AD317C0E9F8
:104F2000002375E00A680A6052F8040B0A6020B991
:104F30004FF0FF340FF6D0203BE0E96A018067E0D4
:104F40000A680A6052F8040B0A6020B94FF0FF3477
:104F50000FF6B4202DE0E96A016059E00A680A60A2
:104F600052F8040B0A600021C5E90001EE607821C7
:104F7000284600F029F94BE06C2285F83A200B68AE
:104F80000B6053F8042B0B6052BB4FF0FF340FF64D
:104F9000AC200EE095F83A206C2AF0D00868086042
:104FA00050F8044B0860EC603CB94FF0FF340FF64A
:104FB000702002F09DF9201A76BD2E6B002E04D5CC
:104FC0002046FDF7CBFC044608E03246002120468F
:104FD00002F0AEF9002814BF041B3446AC6117E0A0
:104FE000294600F092F8002812D54FF0FF3076BD28
:104FF0006869411C69612521315409E06969481CCF
:10500000686125227254210002D0411C6961345428
:10501000002076BD2DE9F0410E460546716B7069A2
:10502000B46A091A306A091AB069091A706A091A49
:10503000F069091A96F838000C1B410790460DD408
:10504000002C0BDD2746B0682021A8470028B0605F
:1050500057D0F06A401C7F1EF062F4D1736942465B
:105060003146284600F0ACFC00284AD1376A002FB0
:105070000ADDB0683021A8470028B06041D0F06A4E
:10508000401C7F1EF062F4D1B369F26831462846B5
:1050900000F096FCA8BB776A002F09DDB0683021CC
:1050A000A847B06068B3F06A401C7F1EF062F5D17B
:1050B000F068B169F36942183146284600F080FC77
:1050C000F8B9B76A002F09DDB0683021A847B06091
:1050D000B8B1F06A401C7F1EF062F5D196F8380036
:1050E00041070BD5002C09DDB0682021A847B0602E
:1050F00038B1F06A401C641EF062F5D10020BDE8B2
:10510000F0814FF0FF30BDE8F0812DE9F8470D4602
:10511000A3B02F6B002F8146904648BF6FF0004729
:1051200002F032F9696B40180FF62C118128D1E991
:105130000023CDE9012328BF4FF0FF303ED20024E9
:10514000002F2FDDD8F8001001AA684602F0C8F839
:105150000646002E35D4D8F8000008B9761E30D4A3
:10516000B7421FDB6869301881280AD300206863C2
:1051700003AA29464846FFF74DFF040012D4002039
:10518000686103A8D5F814A032466946504402F07D
:1051900001F9B244C5F814A058F8040B002818BF50
:1051A000BF1BCDD12CB903AA29464846FFF732FFD1
:1051B000044614B9002068616863204624B0BDE845
:1051C000F0874FF0FF34F8E72DE9FC4707468A46A1
:1051D0003E69BAF16F0F08BF082405D04AF02001DC
:1051E000782914BF0A2410243C25D7E90023BAF1FA
:1051F000640F18BFBAF1690F9046994606D1002195
:105200008B4203DAD8F1000869EB49090020814597
:1052100008BF80451FD1386BE8B9082C4CD197F8EE
:105220003800010748D530203B2586F83B0043E095
:1052300000280ED597F8380000F01400102808D187
:105240007A6B7869121A386A121A511A0029C8BF83
:105250003962BDE8F3878DF800A0404649462246F2
:10526000E317FFF719F83032D0B26D1E3A280195D6
:1052700004DB9DF80000A0F151018A1872554046E8
:1052800049462246E317FFF707F880468946002083
:10529000814508BF804503D0F86871198842DCD386
:1052A000082C09D197F83800010705D5715D302920
:1052B00002D06D1E30207055C5F13C01B9617019E6
:1052C000F860386B8142B3DA411A39624FF6EF70F9
:1052D000398F01403987BDE8F3872DE9D043064671
:1052E0000F4614464FF00008DFF8389412E0E0074C
:1052F00007D542464B4630463946FEF73BFB06464D
:105300000F464046494642464B46FEF733FB641083
:1053100080468946002CEAD130463946BDE8D08324
:105320002DE9F34F054641F020048DB0D5E9008901
:10533000612C02AE09D0286B002848BF062003D498
:1053400008BF672C01D101202863D5E9002358004C
:105350004015401C0ED119030CD00320A8619DF804
:10536000380061381A2802D20FF2F46111E00FF20E
:10537000F4610EE058004015401C0FD119030DD107
:105380000320A8619DF8380061381A2814D30FF261
:10539000DC61E868032201F0FDFFD3E1194621F04A
:1053A0000043B3F5801F10460DD20027BB4208BF53
:1053B000BA42019703D111E00FF2AC61E9E701AA0B
:1053C00002F03CF80AE0DFF8607307EB1352DFF8F5
:1053D0005C3301921940DFF858331943C5E90001E5
:1053E000612C0ED1E86830210170811CE9609DF8C4
:1053F000381061290CBF7821582141706869801CE0
:105400006861D5E900AB2BF0004300202AF00002D0
:10541000834204BF8242002300F05A81612C40F095
:10542000A980286B00284CBF2120401C00904046DA
:10543000009F7F1C494600220023FEF793FDD946BA
:1054400001988DF8082038BF89F00049001F0190AD
:10545000002FD0460DF1090040F3498140F2FF7161
:10546000DFF8D0B20C9106464046494600220023A0
:1054700002F01CF880F03A814800400D00F11C0257
:1054800010D0002A0EDD0C98824205DB09F00040A6
:1054900040EA0B01002013E0A448084040EA025112
:1054A00040460DE029F00043002028F0000283422E
:1054B00008BF82420FBF40461C22404602F00EF851
:1054C00080468946FEF78AF8FF1F002F044609DD53
:1054D000FEF730FA02460B464046494600F0DEFE33
:1054E00080468946F01D072104E004F00F0200F811
:1054F000012D2411002C01DD491EF6D5491E5CBF8B
:10550000002200F8012DF9D5ECE00020194602AA8E
:105510000A4400E05B1E12F80149491E8442F9D09A
:105520000F2804D10DF10900425C521C425400299D
:1055300004D50198001D02AE5B1C0190591E12D4C7
:105540009DF838007218147804F130085FFA88F476
:10555000392CC4BFA0F13A04A044491E02F80189C5
:10556000F1D58DF83800286B002840F1B080591E25
:105570002963ACE04046494600220023FEF7F2FCD6
:10558000019938BF89F0004947F2975041436A4A70
:1055900091FBF2F20192D2F1070204DD4046494646
:1055A000FFF79BFE0AE0524200206449FFF795FE98
:1055B00002460B464046494600F0E2FE8046662C15
:1055C000286BDFF87CB106BF019F0A3706273F181A
:1055D000142FC8BF142730208DF8080089460DF11C
:1055E000090000E03046002F34DD064640464946BB
:1055F000FEF780F901460A4606F1080304200A2650
:10560000B2FBF6F606EB860EA2EB4E02303203F842
:10561000012C0A22B6FBF2F202EB820EA6EB4E063A
:105620003036401E03F8026DE9D1083F002F03F128
:105630000806D7DD0846FEF78FF902460B464046BE
:10564000494600F02BFE00225B46FEF793F98046A8
:105650008946CBE70DF10901401A0DF1090604E076
:105660000199491E401E0191761C31783029F7D0EE
:10567000662C02D10199491C03E0652C0CBF012165
:1056800000212B6BCB189842B8BF431E002B1ED4B1
:10569000834204DAF05C3528A8BF392000DA3020D4
:1056A0001946721E02EB010800E05B1E18F8019912
:1056B000491E8145F9D0392802D1705C401C7054D4
:1056C000002904D50198401C16465B1C01900198E6
:1056D00000B200901BB29DF838103246284600F008
:1056E00035F82FE0C61D002F3FF7BEAE30460DF156
:1056F0000901401A009903468842C8BF0B46002B97
:105700000DF109063FF52FAF8342BFF6FEAE0DF156
:105710000900C05C07287FF7F8AE0F20F6E600000E
:10572000CBCCCC0C0000244002FCFFFFFFFF0F801D
:105730000000E03F0000F07FA08601000000F03F85
:1057400084D797410FB0BDE8F08F00002DE9F847EE
:1057500083B006468A461746984601F0C3FDB8F165
:10576000000F406A356B90F8009002DC4FF00108A2
:10577000BFA7BDF930404AF02000662808BF641C6E
:1057800015D0672840F0848014F1040FC0F28680A1
:10579000AC4280F2838096F83800641C010702D482
:1057A000A845B8BF454620B22D1A48BF00250FFABC
:1057B00084FAF068B169BAF1000F25DC4A1C302385
:1057C0004354002D03DC96F83800010703D5F06838
:1057D00000F80290521C15EB0A0FB8BF6C4220B2C1
:1057E000441941424445B8BFA046B26171620FFA04
:1057F00088F5F561F068B3692A463946184401F026
:10580000C9FD641BB462C4E022B29045084417DAB3
:105810004246394601F0BEFDB0694044B061AAEB92
:105820000801002D716203DC96F838100A0705D5CF
:10583000F16801F80090F069401CF061B562A8E0E1
:10584000394601F0A7FDB069002D5044A8EB0408CB
:1058500003DC96F838100A0703D5F16801F80090C8
:10586000401CB0610FFA88F08542F068B369B8BF98
:10587000A8460FFA88F207EB0A01184401F08AFDE6
:10588000B0690FFA88F10844B061681A706280E06C
:10589000BAF1610F14D14FF0700A16E0A84504DA8E
:1058A00096F838100A0758BF45466D1E48BF0025B8
:1058B000BAF1670F14BF4FF0450A4FF0650A04E0D4
:1058C000BAF1410F08BF4FF0500AB169F368481CA4
:1058D000B061002D17F8012B5A5403DC96F83810EC
:1058E0000A071BD5F168431CB36101F80090002D35
:1058F00014DDA8F101080FFA88F08542F068B8BFFE
:10590000A8460FFA88F23946184401F043FDB06901
:105910000FFA88F108446D1AB0617562F068B169D8
:105920000844002C80F800A003D42B214170811C76
:1059300003E02D2141706442811C00206A460AE088
:1059400023460A2493FBF4F404EB8405A3EB4503FC
:1059500002F8013B401C24B2002CF1DC012806DCDB
:105960004AF02002652A04BF302201F8012B48B911
:10597000302001F8010B07E0401E1DF800203032F6
:1059800001F8012B0028F7DCF068B2691044091A0D
:10599000F16196F8380000F0140010280DD17169FB
:1059A000B0694118706A4118F0694118B06A41182D
:1059B000706B8142BCBF411A316204B0BDE8F08710
:1059C000F8B505460E4617461C46002074B117F878
:1059D000011BB068A847B06030B1F06A401CF062AB
:1059E0000020641EF3D1F2BD4FF0FF30F2BD000085
:1059F0007072696E74665F733A20256E20646973F5
:105A0000616C6C6F776564007072696E74663A20C1
:105A100062616420256E20617267756D656E740029
:105A20007072696E74665F733A20626164202573D8
:105A300020617267756D656E740000007072696E2A
:105A400074665F733A2062616420256C7320617212
:105A500067756D656E7400000000000000000000B6
:105A60006E616E004E414E00696E6600494E460002
:105A70003000000070B50246002315780024002095
:105A80002D2D0AD10123521C012406E012F8016BCE
:105A90000A2505FB00603038641C1578303D0A2D5E
:105AA000F4D301B10C7003B1404270BD2DE9F8434D
:105AB000024600232CE0A7F1410CBCF1060F2CBFDD
:105AC0000027373F55FA87F5761C641C3778A7F115
:105AD000300EBEF10A0F21BFA7F16108B8F1060F21
